{
  "contractName": "DBank",
  "abi": [
    {
      "inputs": [
        {
          "internalType": "contract Tether",
          "name": "_tether",
          "type": "address"
        },
        {
          "internalType": "contract Reward",
          "name": "_reward",
          "type": "address"
        }
      ],
      "stateMutability": "nonpayable",
      "type": "constructor"
    },
    {
      "inputs": [
        {
          "internalType": "address",
          "name": "",
          "type": "address"
        }
      ],
      "name": "hasStaked",
      "outputs": [
        {
          "internalType": "bool",
          "name": "",
          "type": "bool"
        }
      ],
      "stateMutability": "view",
      "type": "function"
    },
    {
      "inputs": [
        {
          "internalType": "address",
          "name": "",
          "type": "address"
        }
      ],
      "name": "isStaking",
      "outputs": [
        {
          "internalType": "bool",
          "name": "",
          "type": "bool"
        }
      ],
      "stateMutability": "view",
      "type": "function"
    },
    {
      "inputs": [],
      "name": "name",
      "outputs": [
        {
          "internalType": "string",
          "name": "",
          "type": "string"
        }
      ],
      "stateMutability": "view",
      "type": "function"
    },
    {
      "inputs": [],
      "name": "owner",
      "outputs": [
        {
          "internalType": "address",
          "name": "",
          "type": "address"
        }
      ],
      "stateMutability": "view",
      "type": "function"
    },
    {
      "inputs": [],
      "name": "reward",
      "outputs": [
        {
          "internalType": "contract Reward",
          "name": "",
          "type": "address"
        }
      ],
      "stateMutability": "view",
      "type": "function"
    },
    {
      "inputs": [
        {
          "internalType": "uint256",
          "name": "",
          "type": "uint256"
        }
      ],
      "name": "stakers",
      "outputs": [
        {
          "internalType": "address",
          "name": "",
          "type": "address"
        }
      ],
      "stateMutability": "view",
      "type": "function"
    },
    {
      "inputs": [
        {
          "internalType": "address",
          "name": "",
          "type": "address"
        }
      ],
      "name": "stakingBalance",
      "outputs": [
        {
          "internalType": "uint256",
          "name": "",
          "type": "uint256"
        }
      ],
      "stateMutability": "view",
      "type": "function"
    },
    {
      "inputs": [],
      "name": "tether",
      "outputs": [
        {
          "internalType": "contract Tether",
          "name": "",
          "type": "address"
        }
      ],
      "stateMutability": "view",
      "type": "function"
    },
    {
      "inputs": [
        {
          "internalType": "uint256",
          "name": "_amount",
          "type": "uint256"
        }
      ],
      "name": "depositTokens",
      "outputs": [],
      "stateMutability": "nonpayable",
      "type": "function"
    },
    {
      "inputs": [],
      "name": "issueRewardTokens",
      "outputs": [],
      "stateMutability": "nonpayable",
      "type": "function"
    },
    {
      "inputs": [],
      "name": "unstakeTokens",
      "outputs": [],
      "stateMutability": "nonpayable",
      "type": "function"
    }
  ],
  "bytecode": "0x60806040526040518060400160405280600e81526020017f446563656e7472616c2042616e6b00000000000000000000000000000000000081525060019080519060200190620000519291906200014f565b503480156200005f57600080fd5b50604051620014a4380380620014a483398181016040528101906200008591906200022d565b336000806101000a81548173ffffffffffffffffffffffffffffffffffffffff021916908373ffffffffffffffffffffffffffffffffffffffff16021790555081600260006101000a81548173ffffffffffffffffffffffffffffffffffffffff021916908373ffffffffffffffffffffffffffffffffffffffff16021790555080600360006101000a81548173ffffffffffffffffffffffffffffffffffffffff021916908373ffffffffffffffffffffffffffffffffffffffff16021790555050506200036e565b8280546200015d90620002d0565b90600052602060002090601f016020900481019282620001815760008555620001cd565b82601f106200019c57805160ff1916838001178555620001cd565b82800160010185558215620001cd579182015b82811115620001cc578251825591602001919060010190620001af565b5b509050620001dc9190620001e0565b5090565b5b80821115620001fb576000816000905550600101620001e1565b5090565b60008151905062000210816200033a565b92915050565b600081519050620002278162000354565b92915050565b6000806040838503121562000247576200024662000335565b5b6000620002578582860162000216565b92505060206200026a85828601620001ff565b9150509250929050565b60006200028182620002b0565b9050919050565b6000620002958262000274565b9050919050565b6000620002a98262000274565b9050919050565b600073ffffffffffffffffffffffffffffffffffffffff82169050919050565b60006002820490506001821680620002e957607f821691505b602082108114156200030057620002ff62000306565b5b50919050565b7f4e487b7100000000000000000000000000000000000000000000000000000000600052602260045260246000fd5b600080fd5b620003458162000288565b81146200035157600080fd5b50565b6200035f816200029c565b81146200036b57600080fd5b50565b611126806200037e6000396000f3fe608060405234801561001057600080fd5b50600436106100a95760003560e01c80636f49712b116100715780636f49712b146101425780638da5cb5b14610172578063a5ce413b14610190578063c93c8f341461019a578063dd49756e146101ca578063fd5e6dd1146101e6576100a9565b806306fdde03146100ae578063228cb733146100cc57806345bc78ab146100ea5780635efc071a1461011a578063630392c014610138575b600080fd5b6100b6610216565b6040516100c39190610cba565b60405180910390f35b6100d46102a4565b6040516100e19190610c84565b60405180910390f35b61010460048036038101906100ff9190610a7a565b6102ca565b6040516101119190610d3c565b60405180910390f35b6101226102e2565b60405161012f9190610c9f565b60405180910390f35b610140610308565b005b61015c60048036038101906101579190610a7a565b61050e565b6040516101699190610c69565b60405180910390f35b61017a61052e565b6040516101879190610bee565b60405180910390f35b610198610552565b005b6101b460048036038101906101af9190610a7a565b610729565b6040516101c19190610c69565b60405180910390f35b6101e460048036038101906101df9190610ad4565b610749565b005b61020060048036038101906101fb9190610ad4565b6109fc565b60405161020d9190610bee565b60405180910390f35b6001805461022390610ebd565b80601f016020809104026020016040519081016040528092919081815260200182805461024f90610ebd565b801561029c5780601f106102715761010080835404028352916020019161029c565b820191906000526020600020905b81548152906001019060200180831161027f57829003601f168201915b505050505081565b600360009054906101000a900473ffffffffffffffffffffffffffffffffffffffff1681565b60056020528060005260406000206000915090505481565b600260009054906101000a900473ffffffffffffffffffffffffffffffffffffffff1681565b60008054906101000a900473ffffffffffffffffffffffffffffffffffffffff1673ffffffffffffffffffffffffffffffffffffffff163373ffffffffffffffffffffffffffffffffffffffff1614610396576040517f08c379a000000000000000000000000000000000000000000000000000000000815260040161038d90610cdc565b60405180910390fd5b60005b60048054905081101561050b576000600482815481106103bc576103bb610fc5565b5b9060005260206000200160009054906101000a900473ffffffffffffffffffffffffffffffffffffffff16905060006009600560008473ffffffffffffffffffffffffffffffffffffffff1673ffffffffffffffffffffffffffffffffffffffff168152602001908152602001600020546104379190610dc9565b90506000811161044657600080fd5b600360009054906101000a900473ffffffffffffffffffffffffffffffffffffffff1673ffffffffffffffffffffffffffffffffffffffff1663a9059cbb83836040518363ffffffff1660e01b81526004016104a3929190610c40565b602060405180830381600087803b1580156104bd57600080fd5b505af11580156104d1573d6000803e3d6000fd5b505050506040513d601f19601f820116820180604052508101906104f59190610aa7565b505050808061050390610eef565b915050610399565b50565b60076020528060005260406000206000915054906101000a900460ff1681565b60008054906101000a900473ffffffffffffffffffffffffffffffffffffffff1681565b6000600560003373ffffffffffffffffffffffffffffffffffffffff1673ffffffffffffffffffffffffffffffffffffffff168152602001908152602001600020549050600081116105d9576040517f08c379a00000000000000000000000000000000000000000000000000000000081526004016105d090610cfc565b60405180910390fd5b600260009054906101000a900473ffffffffffffffffffffffffffffffffffffffff1673ffffffffffffffffffffffffffffffffffffffff1663a9059cbb33836040518363ffffffff1660e01b8152600401610636929190610c40565b602060405180830381600087803b15801561065057600080fd5b505af1158015610664573d6000803e3d6000fd5b505050506040513d601f19601f820116820180604052508101906106889190610aa7565b506000600560003373ffffffffffffffffffffffffffffffffffffffff1673ffffffffffffffffffffffffffffffffffffffff168152602001908152602001600020819055506000600760003373ffffffffffffffffffffffffffffffffffffffff1673ffffffffffffffffffffffffffffffffffffffff16815260200190815260200160002060006101000a81548160ff02191690831515021790555050565b60066020528060005260406000206000915054906101000a900460ff1681565b6000811161078c576040517f08c379a000000000000000000000000000000000000000000000000000000000815260040161078390610d1c565b60405180910390fd5b600260009054906101000a900473ffffffffffffffffffffffffffffffffffffffff1673ffffffffffffffffffffffffffffffffffffffff166323b872dd3330846040518463ffffffff1660e01b81526004016107eb93929190610c09565b602060405180830381600087803b15801561080557600080fd5b505af1158015610819573d6000803e3d6000fd5b505050506040513d601f19601f8201168201806040525081019061083d9190610aa7565b5080600560003373ffffffffffffffffffffffffffffffffffffffff1673ffffffffffffffffffffffffffffffffffffffff168152602001908152602001600020600082825461088d9190610d73565b92505081905550600660003373ffffffffffffffffffffffffffffffffffffffff1673ffffffffffffffffffffffffffffffffffffffff16815260200190815260200160002060009054906101000a900460ff16610949576004339080600181540180825580915050600190039060005260206000200160009091909190916101000a81548173ffffffffffffffffffffffffffffffffffffffff021916908373ffffffffffffffffffffffffffffffffffffffff1602179055505b6001600660003373ffffffffffffffffffffffffffffffffffffffff1673ffffffffffffffffffffffffffffffffffffffff16815260200190815260200160002060006101000a81548160ff0219169083151502179055506001600760003373ffffffffffffffffffffffffffffffffffffffff1673ffffffffffffffffffffffffffffffffffffffff16815260200190815260200160002060006101000a81548160ff02191690831515021790555050565b60048181548110610a0c57600080fd5b906000526020600020016000915054906101000a900473ffffffffffffffffffffffffffffffffffffffff1681565b600081359050610a4a816110ab565b92915050565b600081519050610a5f816110c2565b92915050565b600081359050610a74816110d9565b92915050565b600060208284031215610a9057610a8f610ff4565b5b6000610a9e84828501610a3b565b91505092915050565b600060208284031215610abd57610abc610ff4565b5b6000610acb84828501610a50565b91505092915050565b600060208284031215610aea57610ae9610ff4565b5b6000610af884828501610a65565b91505092915050565b610b0a81610dfa565b82525050565b610b1981610e0c565b82525050565b610b2881610e42565b82525050565b610b3781610e54565b82525050565b6000610b4882610d57565b610b528185610d62565b9350610b62818560208601610e8a565b610b6b81610ff9565b840191505092915050565b6000610b83602d83610d62565b9150610b8e8261100a565b604082019050919050565b6000610ba6601f83610d62565b9150610bb182611059565b602082019050919050565b6000610bc9601d83610d62565b9150610bd482611082565b602082019050919050565b610be881610e38565b82525050565b6000602082019050610c036000830184610b01565b92915050565b6000606082019050610c1e6000830186610b01565b610c2b6020830185610b01565b610c386040830184610bdf565b949350505050565b6000604082019050610c556000830185610b01565b610c626020830184610bdf565b9392505050565b6000602082019050610c7e6000830184610b10565b92915050565b6000602082019050610c996000830184610b1f565b92915050565b6000602082019050610cb46000830184610b2e565b92915050565b60006020820190508181036000830152610cd48184610b3d565b905092915050565b60006020820190508181036000830152610cf581610b76565b9050919050565b60006020820190508181036000830152610d1581610b99565b9050919050565b60006020820190508181036000830152610d3581610bbc565b9050919050565b6000602082019050610d516000830184610bdf565b92915050565b600081519050919050565b600082825260208201905092915050565b6000610d7e82610e38565b9150610d8983610e38565b9250827fffffffffffffffffffffffffffffffffffffffffffffffffffffffffffffffff03821115610dbe57610dbd610f38565b5b828201905092915050565b6000610dd482610e38565b9150610ddf83610e38565b925082610def57610dee610f67565b5b828204905092915050565b6000610e0582610e18565b9050919050565b60008115159050919050565b600073ffffffffffffffffffffffffffffffffffffffff82169050919050565b6000819050919050565b6000610e4d82610e66565b9050919050565b6000610e5f82610e66565b9050919050565b6000610e7182610e78565b9050919050565b6000610e8382610e18565b9050919050565b60005b83811015610ea8578082015181840152602081019050610e8d565b83811115610eb7576000848401525b50505050565b60006002820490506001821680610ed557607f821691505b60208210811415610ee957610ee8610f96565b5b50919050565b6000610efa82610e38565b91507fffffffffffffffffffffffffffffffffffffffffffffffffffffffffffffffff821415610f2d57610f2c610f38565b5b600182019050919050565b7f4e487b7100000000000000000000000000000000000000000000000000000000600052601160045260246000fd5b7f4e487b7100000000000000000000000000000000000000000000000000000000600052601260045260246000fd5b7f4e487b7100000000000000000000000000000000000000000000000000000000600052602260045260246000fd5b7f4e487b7100000000000000000000000000000000000000000000000000000000600052603260045260246000fd5b600080fd5b6000601f19601f8301169050919050565b7f7468652063616c6c6572206d75737420626520746865206f776e6572206f662060008201527f7468697320636f6e747261637400000000000000000000000000000000000000602082015250565b7f756e7374616b696e6720616d6f756e742063616e6e6f74206265207a65726f00600082015250565b7f7374616b696e6720616d6f756e742063616e6e6f74206265207a65726f000000600082015250565b6110b481610dfa565b81146110bf57600080fd5b50565b6110cb81610e0c565b81146110d657600080fd5b50565b6110e281610e38565b81146110ed57600080fd5b5056fea2646970667358221220a75135ec5757b01c672c5fbffce5d51ce881cd9a0b9a1cf82cc4525538b8abda64736f6c63430008070033",
  "immutableReferences": {},
  "source": "// SPDX-License-Identifier: UNLICENSED\n\npragma solidity >=0.7.0 <0.9.0;\n\nimport './Tether.sol';\nimport './Reward.sol';\n\ncontract DBank {\n    address public owner;\n    string public name = 'Decentral Bank';\n    Tether public tether;\n    Reward public reward;\n    \n    constructor(Tether _tether, Reward _reward) {\n        owner = msg.sender;\n        tether = _tether;\n        reward = _reward;\n    }\n\n    address[] public stakers;\n\n    modifier onlyOwner() {\n        require(msg.sender == owner, 'the caller must be the owner of this contract');\n        _;\n    }\n\n    // Mapping to keep track of account's staking\n    mapping(address => uint256) public stakingBalance;\n    mapping(address => bool) public hasStaked;\n    mapping(address => bool) public isStaking;\n\n    // Staking function to deposit USDT tokens\n    function depositTokens(uint256 _amount) public {\n\n        // Enforce condition to check if staking amount is greater than zero\n        require(_amount > 0, 'staking amount cannot be zero');\n\n        tether.transferFrom(msg.sender, address(this), _amount);\n        \n        // Update customer's staking balance\n        stakingBalance[msg.sender] += _amount;\n\n        if(!hasStaked[msg.sender]){\n            stakers.push(msg.sender);\n        }\n\n        hasStaked[msg.sender] = true;\n        isStaking[msg.sender] = true;\n    }\n\n    function issueRewardTokens() public onlyOwner {\n        for (uint i=0;i<stakers.length;i++){\n            address recipient = stakers[i];\n            uint balance = stakingBalance[recipient] / 9;\n            require(balance > 0);\n            reward.transfer(recipient, balance);\n        }\n    }\n\n    function unstakeTokens() public {\n        uint256 balance = stakingBalance[msg.sender]; \n        require(balance > 0, 'unstaking amount cannot be zero');\n        tether.transfer(msg.sender, balance);\n        stakingBalance[msg.sender] = 0;\n        isStaking[msg.sender] = false;\n    }\n}",
  "sourcePath": "/Users/rajapandian/workspace/blockchain/ethereum/defi-staking-app/defi-staking-app/src/contracts/DBank.sol",
  "compiler": {
    "name": "solc",
    "version": "0.8.7+commit.e28d00a7.Emscripten.clang"
  },
  "schemaVersion": "3.2.3",
  "updatedAt": "2021-08-28T11:06:25.533Z",
  "devdoc": {
    "kind": "dev",
    "methods": {},
    "version": 1
  },
  "userdoc": {
    "kind": "user",
    "methods": {},
    "version": 1
  }
}