{
  "contractName": "DBank",
  "abi": [
    {
      "inputs": [
        {
          "internalType": "contract Tether",
          "name": "_tether",
          "type": "address"
        },
        {
          "internalType": "contract Reward",
          "name": "_reward",
          "type": "address"
        }
      ],
      "stateMutability": "nonpayable",
      "type": "constructor"
    },
    {
      "inputs": [],
      "name": "name",
      "outputs": [
        {
          "internalType": "string",
          "name": "",
          "type": "string"
        }
      ],
      "stateMutability": "view",
      "type": "function",
      "constant": true
    },
    {
      "inputs": [],
      "name": "owner",
      "outputs": [
        {
          "internalType": "address",
          "name": "",
          "type": "address"
        }
      ],
      "stateMutability": "view",
      "type": "function",
      "constant": true
    },
    {
      "inputs": [],
      "name": "reward",
      "outputs": [
        {
          "internalType": "contract Reward",
          "name": "",
          "type": "address"
        }
      ],
      "stateMutability": "view",
      "type": "function",
      "constant": true
    },
    {
      "inputs": [],
      "name": "tether",
      "outputs": [
        {
          "internalType": "contract Tether",
          "name": "",
          "type": "address"
        }
      ],
      "stateMutability": "view",
      "type": "function",
      "constant": true
    }
  ],
  "bytecode": "0x60806040526040518060400160405280600d81526020017f446563656e74616c2042616e6b000000000000000000000000000000000000008152506001908051906020019061004f929190610107565b5034801561005c57600080fd5b5060405161071e38038061071e833981810160405281019061007e91906101d4565b81600260006101000a81548173ffffffffffffffffffffffffffffffffffffffff021916908373ffffffffffffffffffffffffffffffffffffffff16021790555080600360006101000a81548173ffffffffffffffffffffffffffffffffffffffff021916908373ffffffffffffffffffffffffffffffffffffffff16021790555050506102fe565b8280546101139061026a565b90600052602060002090601f016020900481019282610135576000855561017c565b82601f1061014e57805160ff191683800117855561017c565b8280016001018555821561017c579182015b8281111561017b578251825591602001919060010190610160565b5b509050610189919061018d565b5090565b5b808211156101a657600081600090555060010161018e565b5090565b6000815190506101b9816102d0565b92915050565b6000815190506101ce816102e7565b92915050565b600080604083850312156101eb576101ea6102cb565b5b60006101f9858286016101bf565b925050602061020a858286016101aa565b9150509250929050565b600061021f8261024a565b9050919050565b600061023182610214565b9050919050565b600061024382610214565b9050919050565b600073ffffffffffffffffffffffffffffffffffffffff82169050919050565b6000600282049050600182168061028257607f821691505b602082108114156102965761029561029c565b5b50919050565b7f4e487b7100000000000000000000000000000000000000000000000000000000600052602260045260246000fd5b600080fd5b6102d981610226565b81146102e457600080fd5b50565b6102f081610238565b81146102fb57600080fd5b50565b6104118061030d6000396000f3fe608060405234801561001057600080fd5b506004361061004c5760003560e01c806306fdde0314610051578063228cb7331461006f5780635efc071a1461008d5780638da5cb5b146100ab575b600080fd5b6100596100c9565b604051610066919061027e565b60405180910390f35b610077610157565b6040516100849190610248565b60405180910390f35b61009561017d565b6040516100a29190610263565b60405180910390f35b6100b36101a3565b6040516100c0919061022d565b60405180910390f35b600180546100d690610369565b80601f016020809104026020016040519081016040528092919081815260200182805461010290610369565b801561014f5780601f106101245761010080835404028352916020019161014f565b820191906000526020600020905b81548152906001019060200180831161013257829003601f168201915b505050505081565b600360009054906101000a900473ffffffffffffffffffffffffffffffffffffffff1681565b600260009054906101000a900473ffffffffffffffffffffffffffffffffffffffff1681565b60008054906101000a900473ffffffffffffffffffffffffffffffffffffffff1681565b6101d0816102bc565b82525050565b6101df816102ee565b82525050565b6101ee81610300565b82525050565b60006101ff826102a0565b61020981856102ab565b9350610219818560208601610336565b610222816103ca565b840191505092915050565b600060208201905061024260008301846101c7565b92915050565b600060208201905061025d60008301846101d6565b92915050565b600060208201905061027860008301846101e5565b92915050565b6000602082019050818103600083015261029881846101f4565b905092915050565b600081519050919050565b600082825260208201905092915050565b60006102c7826102ce565b9050919050565b600073ffffffffffffffffffffffffffffffffffffffff82169050919050565b60006102f982610312565b9050919050565b600061030b82610312565b9050919050565b600061031d82610324565b9050919050565b600061032f826102ce565b9050919050565b60005b83811015610354578082015181840152602081019050610339565b83811115610363576000848401525b50505050565b6000600282049050600182168061038157607f821691505b602082108114156103955761039461039b565b5b50919050565b7f4e487b7100000000000000000000000000000000000000000000000000000000600052602260045260246000fd5b6000601f19601f830116905091905056fea26469706673582212206fc59144cb404d8f89bc55e036973b78ece80f0b2fa162bcc65ccd9303c7d6c264736f6c63430008070033",
  "immutableReferences": {},
  "source": "// SPDX-License-Identifier: UNLICENSED\n\npragma solidity >=0.7.0 <0.9.0;\n\nimport './Tether.sol';\nimport './Reward.sol';\n\ncontract DBank {\n    address public owner;\n    string public name = 'Decental Bank';\n    Tether public tether;\n    Reward public reward;\n    \n    constructor(Tether _tether, Reward _reward) {\n        tether = _tether;\n        reward = _reward;\n    }\n\n}",
  "sourcePath": "/Users/rajapandian/workspace/blockchain/ethereum/defi-staking-app-starter/defi-staking-app-starter/src/contracts/DBank.sol",
  "compiler": {
    "name": "solc",
    "version": "0.8.7+commit.e28d00a7.Emscripten.clang"
  },
  "schemaVersion": "3.2.3",
  "updatedAt": "2021-08-27T12:51:02.178Z",
  "networkType": "ethereum",
  "devdoc": {
    "kind": "dev",
    "methods": {},
    "version": 1
  },
  "userdoc": {
    "kind": "user",
    "methods": {},
    "version": 1
  }
}